{
  "_format": "hh-sol-artifact-1",
  "contractName": "CredentialFactory",
  "sourceName": "blockchain/contracts/CredentialFactory.sol",
  "abi": [
    {
      "inputs": [],
      "stateMutability": "nonpayable",
      "type": "constructor"
    },
    {
      "inputs": [
        {
          "internalType": "address",
          "name": "owner",
          "type": "address"
        }
      ],
      "name": "OwnableInvalidOwner",
      "type": "error"
    },
    {
      "inputs": [
        {
          "internalType": "address",
          "name": "account",
          "type": "address"
        }
      ],
      "name": "OwnableUnauthorizedAccount",
      "type": "error"
    },
    {
      "inputs": [],
      "name": "ReentrancyGuardReentrantCall",
      "type": "error"
    },
    {
      "anonymous": false,
      "inputs": [
        {
          "indexed": true,
          "internalType": "address",
          "name": "previousOwner",
          "type": "address"
        },
        {
          "indexed": true,
          "internalType": "address",
          "name": "newOwner",
          "type": "address"
        }
      ],
      "name": "OwnershipTransferred",
      "type": "event"
    },
    {
      "anonymous": false,
      "inputs": [
        {
          "indexed": true,
          "internalType": "address",
          "name": "registry",
          "type": "address"
        },
        {
          "indexed": true,
          "internalType": "string",
          "name": "organization",
          "type": "string"
        },
        {
          "indexed": true,
          "internalType": "address",
          "name": "owner",
          "type": "address"
        }
      ],
      "name": "RegistryCreated",
      "type": "event"
    },
    {
      "inputs": [
        {
          "internalType": "string",
          "name": "_organization",
          "type": "string"
        }
      ],
      "name": "createRegistry",
      "outputs": [
        {
          "internalType": "address",
          "name": "",
          "type": "address"
        }
      ],
      "stateMutability": "nonpayable",
      "type": "function"
    },
    {
      "inputs": [],
      "name": "getAllRegistries",
      "outputs": [
        {
          "internalType": "address[]",
          "name": "",
          "type": "address[]"
        }
      ],
      "stateMutability": "view",
      "type": "function"
    },
    {
      "inputs": [
        {
          "internalType": "string",
          "name": "_organization",
          "type": "string"
        }
      ],
      "name": "getRegistry",
      "outputs": [
        {
          "internalType": "address",
          "name": "",
          "type": "address"
        }
      ],
      "stateMutability": "view",
      "type": "function"
    },
    {
      "inputs": [
        {
          "internalType": "address",
          "name": "_registry",
          "type": "address"
        }
      ],
      "name": "getRegistryOwner",
      "outputs": [
        {
          "internalType": "address",
          "name": "",
          "type": "address"
        }
      ],
      "stateMutability": "view",
      "type": "function"
    },
    {
      "inputs": [],
      "name": "getTotalRegistries",
      "outputs": [
        {
          "internalType": "uint256",
          "name": "",
          "type": "uint256"
        }
      ],
      "stateMutability": "view",
      "type": "function"
    },
    {
      "inputs": [
        {
          "internalType": "string",
          "name": "",
          "type": "string"
        }
      ],
      "name": "organizationRegistries",
      "outputs": [
        {
          "internalType": "address",
          "name": "",
          "type": "address"
        }
      ],
      "stateMutability": "view",
      "type": "function"
    },
    {
      "inputs": [],
      "name": "owner",
      "outputs": [
        {
          "internalType": "address",
          "name": "",
          "type": "address"
        }
      ],
      "stateMutability": "view",
      "type": "function"
    },
    {
      "inputs": [
        {
          "internalType": "uint256",
          "name": "",
          "type": "uint256"
        }
      ],
      "name": "registries",
      "outputs": [
        {
          "internalType": "address",
          "name": "",
          "type": "address"
        }
      ],
      "stateMutability": "view",
      "type": "function"
    },
    {
      "inputs": [
        {
          "internalType": "address",
          "name": "",
          "type": "address"
        }
      ],
      "name": "registryOwners",
      "outputs": [
        {
          "internalType": "address",
          "name": "",
          "type": "address"
        }
      ],
      "stateMutability": "view",
      "type": "function"
    },
    {
      "inputs": [],
      "name": "renounceOwnership",
      "outputs": [],
      "stateMutability": "nonpayable",
      "type": "function"
    },
    {
      "inputs": [
        {
          "internalType": "address",
          "name": "newOwner",
          "type": "address"
        }
      ],
      "name": "transferOwnership",
      "outputs": [],
      "stateMutability": "nonpayable",
      "type": "function"
    }
  ],
  "bytecode": "0x608060405234801561001057600080fd5b50338061003757604051631e4fbdf760e01b81526000600482015260240160405180910390fd5b6100408161004a565b506001805561009a565b600080546001600160a01b038381166001600160a01b0319831681178455604051919092169283917f8be0079c531659141344cd1fd0a4f28419497f9722a3daafe3b4186f6b6457e09190a35050565b6126b7806100a96000396000f3fe608060405234801561001057600080fd5b50600436106100a95760003560e01c8063a0a3727d11610071578063a0a3727d14610140578063b45c61a214610155578063c23fc52314610181578063d428520f14610192578063e6609601146101bb578063f2fde38b146101ce57600080fd5b8063617b291e146100ae57806362b7b83f146100de5780636347c90014610112578063715018a6146101255780638da5cb5b1461012f575b600080fd5b6100c16100bc366004610620565b6101e1565b6040516001600160a01b0390911681526020015b60405180910390f35b6100c16100ec366004610620565b80516020818301810180516003825292820191909301209152546001600160a01b031681565b6100c16101203660046106d1565b610212565b61012d61023c565b005b6000546001600160a01b03166100c1565b610148610250565b6040516100d591906106ea565b6100c1610163366004610737565b6001600160a01b039081166000908152600460205260409020541690565b6002546040519081526020016100d5565b6100c16101a0366004610737565b6004602052600090815260409020546001600160a01b031681565b6100c16101c9366004610620565b6102b2565b61012d6101dc366004610737565b610517565b60006003826040516101f39190610767565b908152604051908190036020019020546001600160a01b031692915050565b6002818154811061022257600080fd5b6000918252602090912001546001600160a01b0316905081565b610244610555565b61024e6000610582565b565b606060028054806020026020016040519081016040528092919081815260200182805480156102a857602002820191906000526020600020905b81546001600160a01b0316815260019091019060200180831161028a575b5050505050905090565b60006102bc6105d2565b60008251116103125760405162461bcd60e51b815260206004820152601960248201527f496e76616c6964206f7267616e697a6174696f6e206e616d650000000000000060448201526064015b60405180910390fd5b60006001600160a01b031660038360405161032d9190610767565b908152604051908190036020019020546001600160a01b0316146103935760405162461bcd60e51b815260206004820152601760248201527f526567697374727920616c7265616479206578697374730000000000000000006044820152606401610309565b60006040516103a1906105fc565b604051809103906000f0801580156103bd573d6000803e3d6000fd5b5060405163f2fde38b60e01b815233600482015290915081906001600160a01b0382169063f2fde38b90602401600060405180830381600087803b15801561040457600080fd5b505af1158015610418573d6000803e3d6000fd5b5050600280546001810182556000919091527f405787fa12a823e0f2b7631cc41b3ba8828b3321ca811111fa75cd3aa3bb5ace0180546001600160a01b0319166001600160a01b0385161790555050604051819060039061047a908790610767565b908152604080516020928190038301812080546001600160a01b03199081166001600160a01b03968716179091559385166000908152600490935291208054339316831790556104cb908690610767565b604051908190038120906001600160a01b038416907fcbef66e6dfad01269836db840a48866247542886cfa2a4d1def36b44cb04f29790600090a491505061051260018055565b919050565b61051f610555565b6001600160a01b03811661054957604051631e4fbdf760e01b815260006004820152602401610309565b61055281610582565b50565b6000546001600160a01b0316331461024e5760405163118cdaa760e01b8152336004820152602401610309565b600080546001600160a01b038381166001600160a01b0319831681178455604051919092169283917f8be0079c531659141344cd1fd0a4f28419497f9722a3daafe3b4186f6b6457e09190a35050565b6002600154036105f557604051633ee5aeb560e01b815260040160405180910390fd5b6002600155565b611eeb806200079783390190565b634e487b7160e01b600052604160045260246000fd5b60006020828403121561063257600080fd5b813567ffffffffffffffff8082111561064a57600080fd5b818401915084601f83011261065e57600080fd5b8135818111156106705761067061060a565b604051601f8201601f19908116603f011681019083821181831017156106985761069861060a565b816040528281528760208487010111156106b157600080fd5b826020860160208301376000928101602001929092525095945050505050565b6000602082840312156106e357600080fd5b5035919050565b6020808252825182820181905260009190848201906040850190845b8181101561072b5783516001600160a01b031683529284019291840191600101610706565b50909695505050505050565b60006020828403121561074957600080fd5b81356001600160a01b038116811461076057600080fd5b9392505050565b6000825160005b81811015610788576020818601810151858301520161076e565b50600092019182525091905056fe60806040523480156200001157600080fd5b5033806200003957604051631e4fbdf760e01b81526000600482015260240160405180910390fd5b6200004481620000a8565b506001808055336000818152600760209081526040808320805460ff191690951790945583518085018552600e81526d426c6f636b43657274732050726f60901b81830152928252600890529190912090620000a190826200019d565b5062000269565b600080546001600160a01b038381166001600160a01b0319831681178455604051919092169283917f8be0079c531659141344cd1fd0a4f28419497f9722a3daafe3b4186f6b6457e09190a35050565b634e487b7160e01b600052604160045260246000fd5b600181811c908216806200012357607f821691505b6020821081036200014457634e487b7160e01b600052602260045260246000fd5b50919050565b601f8211156200019857600081815260208120601f850160051c81016020861015620001735750805b601f850160051c820191505b8181101562000194578281556001016200017f565b5050505b505050565b81516001600160401b03811115620001b957620001b9620000f8565b620001d181620001ca84546200010e565b846200014a565b602080601f831160018114620002095760008415620001f05750858301515b600019600386901b1c1916600185901b17855562000194565b600085815260208120601f198616915b828110156200023a5788860151825594840194600190910190840162000219565b5085821015620002595787850151600019600388901b60f8161c191681555b5050505050600190811b01905550565b611c7280620002796000396000f3fe608060405234801561001057600080fd5b50600436106101415760003560e01c8063715018a6116100b8578063ad357e421161007c578063ad357e42146102dc578063bb3670ab146102fc578063e0574e3f14610324578063f1470a351461034c578063f2fde38b14610354578063f731fa0f1461036757600080fd5b8063715018a61461027e5780637f8d3a3c146102865780638456cb59146102995780638da5cb5b146102a15780638dd18d2d146102bc57600080fd5b806325e8d44c1161010a57806325e8d44c146101e957806331ba19661461020957806334cd4ded146102455780633f4ba83a1461025857806355fa81e6146102605780635c975abb1461027357600080fd5b8062629679146101465780630cee0ee31461015b57806316cc25c2146101995780631b87278d146101ac5780631c8c7634146101bf575b600080fd5b6101596101543660046116d8565b61038a565b005b61018661016936600461179d565b805160208183018101805160058252928201919093012091525481565b6040519081526020015b60405180910390f35b6101866101a73660046117da565b6104cf565b6101596101ba366004611845565b61093c565b6101d26101cd366004611845565b610ab9565b604080519215158352602083019190915201610190565b6101fc6101f73660046116d8565b610c24565b60405161019091906118ae565b6102356102173660046116d8565b6001600160a01b031660009081526007602052604090205460ff1690565b6040519015158152602001610190565b6101fc6102533660046116d8565b610cd0565b610159610d6a565b61015961026e366004611845565b610d7c565b60025460ff16610235565b610159610e43565b6101596102943660046118c1565b610e55565b610159610f84565b6000546040516001600160a01b039091168152602001610190565b6102cf6102ca366004611845565b610f94565b604051610190919061190f565b6101866102ea366004611845565b60066020526000908152604090205481565b61030f61030a36600461179d565b61112d565b604051610190999897969594939291906119a3565b610337610332366004611845565b6113cc565b60405161019099989796959493929190611a08565b600354610186565b6101596103623660046116d8565b6114b3565b6102356103753660046116d8565b60076020526000908152604090205460ff1681565b6103926114f1565b6000546001600160a01b03166001600160a01b0316816001600160a01b0316036104035760405162461bcd60e51b815260206004820152601c60248201527f43616e6e6f74207265766f6b6520636f6e7472616374206f776e65720000000060448201526064015b60405180910390fd5b6001600160a01b03811660009081526007602052604090205460ff166104635760405162461bcd60e51b8152602060048201526015602482015274125cdcdd595c881b9bdd08185d5d1a1bdc9a5e9959605a1b60448201526064016103fa565b6001600160a01b0381166000908152600760209081526040808320805460ff19169055600890915281206104969161166e565b60405133906001600160a01b038316907f19b45c31d6494a95202224ef9780f2e51d5699484120c7ab4c2e15f04e02183290600090a350565b3360009081526007602052604081205460ff16806104f757506000546001600160a01b031633145b61053b5760405162461bcd60e51b81526020600482015260156024820152742737ba1030baba3437b934bd32b21034b9b9bab2b960591b60448201526064016103fa565b61054361151e565b61054b611542565b856105985760405162461bcd60e51b815260206004820152601760248201527f496e76616c69642063726564656e7469616c206861736800000000000000000060448201526064016103fa565b6001600160a01b0384166105e65760405162461bcd60e51b8152602060048201526015602482015274496e76616c6964206f776e6572206164647265737360581b60448201526064016103fa565b60008251116106375760405162461bcd60e51b815260206004820152601960248201527f496e76616c696420766572696669636174696f6e20636f64650000000000000060448201526064016103fa565b600086815260066020526040902054156106935760405162461bcd60e51b815260206004820152601960248201527f43726564656e7469616c20616c7265616479206578697374730000000000000060448201526064016103fa565b6005826040516106a39190611a5b565b9081526020016040518091039020546000146107015760405162461bcd60e51b815260206004820152601e60248201527f566572696669636174696f6e20636f646520616c72656164792075736564000060448201526064016103fa565b8215610764574283116107645760405162461bcd60e51b815260206004820152602560248201527f45787069726174696f6e2064617465206d75737420626520696e207468652066604482015264757475726560d81b60648201526084016103fa565b6003805490600061077483611a77565b919050555060006003549050604051806101200160405280828152602001888152602001878152602001336001600160a01b03168152602001866001600160a01b03168152602001428152602001858152602001600015158152602001848152506004600083815260200190815260200160002060008201518160000155602082015181600101556040820151816002015560608201518160030160006101000a8154816001600160a01b0302191690836001600160a01b0316021790555060808201518160040160006101000a8154816001600160a01b0302191690836001600160a01b0316021790555060a0820151816005015560c0820151816006015560e08201518160070160006101000a81548160ff0219169083151502179055506101008201518160080190816108aa9190611b21565b505050600087815260066020526040908190208290555181906005906108d1908690611a5b565b908152602001604051809103902081905550336001600160a01b031687827ff1d386ad3bdefbda36182b0a70ebd48c17d5f2a4b87df645edca8714a5a3562b8887604051610920929190611be1565b60405180910390a4905061093360018055565b95945050505050565b8060008111801561094f57506003548111155b61096b5760405162461bcd60e51b81526004016103fa90611c05565b610973611542565b600082815260046020526040902060038101546001600160a01b03163314806109a8575060048101546001600160a01b031633145b806109bd57506000546001600160a01b031633145b610a095760405162461bcd60e51b815260206004820152601860248201527f4e6f7420617574686f72697a656420746f207265766f6b65000000000000000060448201526064016103fa565b600781015460ff1615610a5e5760405162461bcd60e51b815260206004820152601a60248201527f43726564656e7469616c20616c7265616479207265766f6b656400000000000060448201526064016103fa565b60078101805460ff19166001179055604051339084907f938d88ce0186b371ae88271ba50d0551b7160c89aa3c418a36776eb50565434290610aa39042815260200190565b60405180910390a350610ab560018055565b5050565b600081815260066020526040812054808203610ada57506000928392509050565b60008181526004602081815260408084208151610120810183528154815260018201549381019390935260028101549183019190915260038101546001600160a01b039081166060840152928101549092166080820152600582015460a0820152600682015460c0820152600782015460ff16151560e082015260088201805491929161010084019190610b6d90611a9e565b80601f0160208091040260200160405190810160405280929190818152602001828054610b9990611a9e565b8015610be65780601f10610bbb57610100808354040283529160200191610be6565b820191906000526020600020905b815481529060010190602001808311610bc957829003601f168201915b50505050508152505090506000808260c00151118015610c0957508160c0015142115b90508160e00151158015610c1b575080155b93505050915091565b6001600160a01b0381166000908152600860205260409020805460609190610c4b90611a9e565b80601f0160208091040260200160405190810160405280929190818152602001828054610c7790611a9e565b8015610cc45780601f10610c9957610100808354040283529160200191610cc4565b820191906000526020600020905b815481529060010190602001808311610ca757829003601f168201915b50505050509050919050565b60086020526000908152604090208054610ce990611a9e565b80601f0160208091040260200160405190810160405280929190818152602001828054610d1590611a9e565b8015610d625780601f10610d3757610100808354040283529160200191610d62565b820191906000526020600020905b815481529060010190602001808311610d4557829003601f168201915b505050505081565b610d726114f1565b610d7a61156c565b565b80600081118015610d8f57506003548111155b610dab5760405162461bcd60e51b81526004016103fa90611c05565b600082815260046020526040902060070154829060ff1615610e075760405162461bcd60e51b815260206004820152601560248201527410dc9959195b9d1a585b081a5cc81c995d9bdad959605a1b60448201526064016103fa565b604051428152339084907f4ad495952cc29d14c7885ddf8bb8c4aa4ae66b68ed30f4bd69f01ffe12f90cb49060200160405180910390a3505050565b610e4b6114f1565b610d7a60006115be565b610e5d6114f1565b6001600160a01b038216610eac5760405162461bcd60e51b8152602060048201526016602482015275496e76616c696420697373756572206164647265737360501b60448201526064016103fa565b6000815111610efd5760405162461bcd60e51b815260206004820152601960248201527f496e76616c6964206f7267616e697a6174696f6e206e616d650000000000000060448201526064016103fa565b6001600160a01b0382166000908152600760209081526040808320805460ff1916600117905560089091529020610f348282611b21565b50336001600160a01b0316826001600160a01b03167fca1b2ad20e6a81f8e43ab9eb19bd7d0639185d399600b8633fe0d36611928d6383604051610f7891906118ae565b60405180910390a35050565b610f8c6114f1565b610d7a61160e565b604080516101208101825260008082526020820181905291810182905260608082018390526080820183905260a0820183905260c0820183905260e082019290925261010081019190915281600081118015610ff257506003548111155b61100e5760405162461bcd60e51b81526004016103fa90611c05565b6000838152600460208181526040928390208351610120810185528154815260018201549281019290925260028101549382019390935260038301546001600160a01b039081166060830152918301549091166080820152600582015460a0820152600682015460c0820152600782015460ff16151560e0820152600882018054919291610100840191906110a290611a9e565b80601f01602080910402602001604051908101604052809291908181526020018280546110ce90611a9e565b801561111b5780601f106110f05761010080835404028352916020019161111b565b820191906000526020600020905b8154815290600101906020018083116110fe57829003601f168201915b50505050508152505091505b50919050565b600080600080600080600080606060058a60405161114b9190611a5b565b90815260200160405180910390205497508760000361119157505060408051602081019091526000808252975087965086955085945084935083925082915081906113bf565b60008881526004602081815260408084208151610120810183528154815260018201549381019390935260028101549183019190915260038101546001600160a01b039081166060840152928101549092166080820152600582015460a0820152600682015460c0820152600782015460ff16151560e08201526008820180549192916101008401919061122490611a9e565b80601f016020809104026020016040519081016040528092919081815260200182805461125090611a9e565b801561129d5780601f106112725761010080835404028352916020019161129d565b820191906000526020600020905b81548152906001019060200180831161128057829003601f168201915b50505050508152505090506000808260c001511180156112c057508160c0015142115b90508160e001511580156112d2575080155b82600001518360200151846060015185608001518660a001518760c001518860e00151600860008b606001516001600160a01b03166001600160a01b0316815260200190815260200160002080805461132a90611a9e565b80601f016020809104026020016040519081016040528092919081815260200182805461135690611a9e565b80156113a35780601f10611378576101008083540402835291602001916113a3565b820191906000526020600020905b81548152906001019060200180831161138657829003601f168201915b505050505090509a509a509a509a509a509a509a509a509a5050505b9193959799909294969850565b60046020819052600091825260409091208054600182015460028301546003840154948401546005850154600686015460078701546008880180549799969895976001600160a01b0397881697909516959394929360ff9092169261143090611a9e565b80601f016020809104026020016040519081016040528092919081815260200182805461145c90611a9e565b80156114a95780601f1061147e576101008083540402835291602001916114a9565b820191906000526020600020905b81548152906001019060200180831161148c57829003601f168201915b5050505050905089565b6114bb6114f1565b6001600160a01b0381166114e557604051631e4fbdf760e01b8152600060048201526024016103fa565b6114ee816115be565b50565b6000546001600160a01b03163314610d7a5760405163118cdaa760e01b81523360048201526024016103fa565b60025460ff1615610d7a5760405163d93c066560e01b815260040160405180910390fd5b60026001540361156557604051633ee5aeb560e01b815260040160405180910390fd5b6002600155565b61157461164b565b6002805460ff191690557f5db9ee0a495bf2e6ff9c91a7834c1ba4fdd244a5e8aa4e537bd38aeae4b073aa335b6040516001600160a01b03909116815260200160405180910390a1565b600080546001600160a01b038381166001600160a01b0319831681178455604051919092169283917f8be0079c531659141344cd1fd0a4f28419497f9722a3daafe3b4186f6b6457e09190a35050565b61161661151e565b6002805460ff191660011790557f62e78cea01bee320cd4e420270b5ea74000d11b0c9f74754ebdbfc544b05a2586115a13390565b60025460ff16610d7a57604051638dfc202b60e01b815260040160405180910390fd5b50805461167a90611a9e565b6000825580601f1061168a575050565b601f0160209004906000526020600020908101906114ee91905b808211156116b857600081556001016116a4565b5090565b80356001600160a01b03811681146116d357600080fd5b919050565b6000602082840312156116ea57600080fd5b6116f3826116bc565b9392505050565b634e487b7160e01b600052604160045260246000fd5b600082601f83011261172157600080fd5b813567ffffffffffffffff8082111561173c5761173c6116fa565b604051601f8301601f19908116603f01168101908282118183101715611764576117646116fa565b8160405283815286602085880101111561177d57600080fd5b836020870160208301376000602085830101528094505050505092915050565b6000602082840312156117af57600080fd5b813567ffffffffffffffff8111156117c657600080fd5b6117d284828501611710565b949350505050565b600080600080600060a086880312156117f257600080fd5b8535945060208601359350611809604087016116bc565b925060608601359150608086013567ffffffffffffffff81111561182c57600080fd5b61183888828901611710565b9150509295509295909350565b60006020828403121561185757600080fd5b5035919050565b60005b83811015611879578181015183820152602001611861565b50506000910152565b6000815180845261189a81602086016020860161185e565b601f01601f19169290920160200192915050565b6020815260006116f36020830184611882565b600080604083850312156118d457600080fd5b6118dd836116bc565b9150602083013567ffffffffffffffff8111156118f957600080fd5b61190585828601611710565b9150509250929050565b602081528151602082015260208201516040820152604082015160608201526000606083015161194a60808401826001600160a01b03169052565b5060808301516001600160a01b03811660a08401525060a083015160c083015260c083015160e083015260e08301516101006119898185018315159052565b8401516101208481015290506117d2610140840182611882565b60006101208b151583528a602084015289604084015260018060a01b03808a1660608501528089166080850152508660a08401528560c084015284151560e0840152806101008401526119f881840185611882565b9c9b505050505050505050505050565b60006101208b83528a602084015289604084015260018060a01b03808a1660608501528089166080850152508660a08401528560c084015284151560e0840152806101008401526119f881840185611882565b60008251611a6d81846020870161185e565b9190910192915050565b600060018201611a9757634e487b7160e01b600052601160045260246000fd5b5060010190565b600181811c90821680611ab257607f821691505b60208210810361112757634e487b7160e01b600052602260045260246000fd5b601f821115611b1c57600081815260208120601f850160051c81016020861015611af95750805b601f850160051c820191505b81811015611b1857828155600101611b05565b5050505b505050565b815167ffffffffffffffff811115611b3b57611b3b6116fa565b611b4f81611b498454611a9e565b84611ad2565b602080601f831160018114611b845760008415611b6c5750858301515b600019600386901b1c1916600185901b178555611b18565b600085815260208120601f198616915b82811015611bb357888601518255948401946001909101908401611b94565b5085821015611bd15787850151600019600388901b60f8161c191681555b5050505050600190811b01905550565b6001600160a01b03831681526040602082018190526000906117d290830184611882565b60208082526019908201527f43726564656e7469616c20646f6573206e6f742065786973740000000000000060408201526060019056fea26469706673582212203179a384e0105b28f0249a1ee7e44aaf8f993b28fb30cbace3c10879cd57a35564736f6c63430008140033a26469706673582212204d09ee8c68418a088cb70d0c9d706d830718795cc63d06a73091516a7f060f8f64736f6c63430008140033",
  "linkReferences": {},
  "deployedLinkReferences": {}
}