{
  "_format": "hh-sol-artifact-1",
  "contractName": "VerificationOracle",
  "sourceName": "blockchain/contracts/VerificationOracle.sol",
  "abi": [
    {
      "inputs": [],
      "stateMutability": "nonpayable",
      "type": "constructor"
    },
    {
      "inputs": [
        {
          "internalType": "address",
          "name": "owner",
          "type": "address"
        }
      ],
      "name": "OwnableInvalidOwner",
      "type": "error"
    },
    {
      "inputs": [
        {
          "internalType": "address",
          "name": "account",
          "type": "address"
        }
      ],
      "name": "OwnableUnauthorizedAccount",
      "type": "error"
    },
    {
      "inputs": [],
      "name": "ReentrancyGuardReentrantCall",
      "type": "error"
    },
    {
      "anonymous": false,
      "inputs": [
        {
          "indexed": false,
          "internalType": "uint256",
          "name": "newFee",
          "type": "uint256"
        }
      ],
      "name": "FeeUpdated",
      "type": "event"
    },
    {
      "anonymous": false,
      "inputs": [
        {
          "indexed": true,
          "internalType": "address",
          "name": "oracle",
          "type": "address"
        }
      ],
      "name": "OracleAuthorized",
      "type": "event"
    },
    {
      "anonymous": false,
      "inputs": [
        {
          "indexed": true,
          "internalType": "address",
          "name": "oracle",
          "type": "address"
        }
      ],
      "name": "OracleRevoked",
      "type": "event"
    },
    {
      "anonymous": false,
      "inputs": [
        {
          "indexed": true,
          "internalType": "address",
          "name": "previousOwner",
          "type": "address"
        },
        {
          "indexed": true,
          "internalType": "address",
          "name": "newOwner",
          "type": "address"
        }
      ],
      "name": "OwnershipTransferred",
      "type": "event"
    },
    {
      "anonymous": false,
      "inputs": [
        {
          "indexed": true,
          "internalType": "uint256",
          "name": "requestId",
          "type": "uint256"
        },
        {
          "indexed": false,
          "internalType": "bool",
          "name": "verified",
          "type": "bool"
        },
        {
          "indexed": false,
          "internalType": "uint256",
          "name": "confidenceScore",
          "type": "uint256"
        },
        {
          "indexed": false,
          "internalType": "string",
          "name": "result",
          "type": "string"
        }
      ],
      "name": "VerificationCompleted",
      "type": "event"
    },
    {
      "anonymous": false,
      "inputs": [
        {
          "indexed": true,
          "internalType": "uint256",
          "name": "requestId",
          "type": "uint256"
        },
        {
          "indexed": true,
          "internalType": "address",
          "name": "requester",
          "type": "address"
        },
        {
          "indexed": false,
          "internalType": "bytes32",
          "name": "credentialHash",
          "type": "bytes32"
        },
        {
          "indexed": false,
          "internalType": "bytes32",
          "name": "submittedImageHash",
          "type": "bytes32"
        }
      ],
      "name": "VerificationRequested",
      "type": "event"
    },
    {
      "inputs": [
        {
          "internalType": "address",
          "name": "_oracle",
          "type": "address"
        }
      ],
      "name": "authorizeOracle",
      "outputs": [],
      "stateMutability": "nonpayable",
      "type": "function"
    },
    {
      "inputs": [
        {
          "internalType": "address",
          "name": "",
          "type": "address"
        }
      ],
      "name": "authorizedOracles",
      "outputs": [
        {
          "internalType": "bool",
          "name": "",
          "type": "bool"
        }
      ],
      "stateMutability": "view",
      "type": "function"
    },
    {
      "inputs": [],
      "name": "getTotalRequests",
      "outputs": [
        {
          "internalType": "uint256",
          "name": "",
          "type": "uint256"
        }
      ],
      "stateMutability": "view",
      "type": "function"
    },
    {
      "inputs": [
        {
          "internalType": "uint256",
          "name": "_requestId",
          "type": "uint256"
        }
      ],
      "name": "getVerificationRequest",
      "outputs": [
        {
          "components": [
            {
              "internalType": "uint256",
              "name": "id",
              "type": "uint256"
            },
            {
              "internalType": "address",
              "name": "requester",
              "type": "address"
            },
            {
              "internalType": "bytes32",
              "name": "credentialHash",
              "type": "bytes32"
            },
            {
              "internalType": "bytes32",
              "name": "submittedImageHash",
              "type": "bytes32"
            },
            {
              "internalType": "uint256",
              "name": "timestamp",
              "type": "uint256"
            },
            {
              "internalType": "bool",
              "name": "completed",
              "type": "bool"
            },
            {
              "internalType": "bool",
              "name": "verified",
              "type": "bool"
            },
            {
              "internalType": "uint256",
              "name": "confidenceScore",
              "type": "uint256"
            },
            {
              "internalType": "string",
              "name": "result",
              "type": "string"
            }
          ],
          "internalType": "struct VerificationOracle.VerificationRequest",
          "name": "",
          "type": "tuple"
        }
      ],
      "stateMutability": "view",
      "type": "function"
    },
    {
      "inputs": [],
      "name": "owner",
      "outputs": [
        {
          "internalType": "address",
          "name": "",
          "type": "address"
        }
      ],
      "stateMutability": "view",
      "type": "function"
    },
    {
      "inputs": [],
      "name": "renounceOwnership",
      "outputs": [],
      "stateMutability": "nonpayable",
      "type": "function"
    },
    {
      "inputs": [
        {
          "internalType": "bytes32",
          "name": "_credentialHash",
          "type": "bytes32"
        },
        {
          "internalType": "bytes32",
          "name": "_submittedImageHash",
          "type": "bytes32"
        }
      ],
      "name": "requestVerification",
      "outputs": [
        {
          "internalType": "uint256",
          "name": "",
          "type": "uint256"
        }
      ],
      "stateMutability": "payable",
      "type": "function"
    },
    {
      "inputs": [
        {
          "internalType": "address",
          "name": "_oracle",
          "type": "address"
        }
      ],
      "name": "revokeOracle",
      "outputs": [],
      "stateMutability": "nonpayable",
      "type": "function"
    },
    {
      "inputs": [
        {
          "internalType": "uint256",
          "name": "_requestId",
          "type": "uint256"
        },
        {
          "internalType": "bool",
          "name": "_verified",
          "type": "bool"
        },
        {
          "internalType": "uint256",
          "name": "_confidenceScore",
          "type": "uint256"
        },
        {
          "internalType": "string",
          "name": "_result",
          "type": "string"
        }
      ],
      "name": "submitVerificationResult",
      "outputs": [],
      "stateMutability": "nonpayable",
      "type": "function"
    },
    {
      "inputs": [
        {
          "internalType": "address",
          "name": "newOwner",
          "type": "address"
        }
      ],
      "name": "transferOwnership",
      "outputs": [],
      "stateMutability": "nonpayable",
      "type": "function"
    },
    {
      "inputs": [
        {
          "internalType": "uint256",
          "name": "_newFee",
          "type": "uint256"
        }
      ],
      "name": "updateVerificationFee",
      "outputs": [],
      "stateMutability": "nonpayable",
      "type": "function"
    },
    {
      "inputs": [],
      "name": "verificationFee",
      "outputs": [
        {
          "internalType": "uint256",
          "name": "",
          "type": "uint256"
        }
      ],
      "stateMutability": "view",
      "type": "function"
    },
    {
      "inputs": [
        {
          "internalType": "uint256",
          "name": "",
          "type": "uint256"
        }
      ],
      "name": "verificationRequests",
      "outputs": [
        {
          "internalType": "uint256",
          "name": "id",
          "type": "uint256"
        },
        {
          "internalType": "address",
          "name": "requester",
          "type": "address"
        },
        {
          "internalType": "bytes32",
          "name": "credentialHash",
          "type": "bytes32"
        },
        {
          "internalType": "bytes32",
          "name": "submittedImageHash",
          "type": "bytes32"
        },
        {
          "internalType": "uint256",
          "name": "timestamp",
          "type": "uint256"
        },
        {
          "internalType": "bool",
          "name": "completed",
          "type": "bool"
        },
        {
          "internalType": "bool",
          "name": "verified",
          "type": "bool"
        },
        {
          "internalType": "uint256",
          "name": "confidenceScore",
          "type": "uint256"
        },
        {
          "internalType": "string",
          "name": "result",
          "type": "string"
        }
      ],
      "stateMutability": "view",
      "type": "function"
    },
    {
      "inputs": [],
      "name": "withdraw",
      "outputs": [],
      "stateMutability": "nonpayable",
      "type": "function"
    }
  ],
  "bytecode": "0x608060405266038d7ea4c6800060055534801561001b57600080fd5b50338061004257604051631e4fbdf760e01b81526000600482015260240160405180910390fd5b61004b81610070565b506001808055336000908152600460205260409020805460ff191690911790556100c0565b600080546001600160a01b038381166001600160a01b0319831681178455604051919092169283917f8be0079c531659141344cd1fd0a4f28419497f9722a3daafe3b4186f6b6457e09190a35050565b611174806100cf6000396000f3fe6080604052600436106100dd5760003560e01c8063715018a61161007f578063a8c278a211610059578063a8c278a214610262578063d4309f4b14610278578063f0e22d5214610298578063f2fde38b146102ad57600080fd5b8063715018a6146102045780638da5cb5b14610219578063917319041461024157600080fd5b80634089d49f116100bb5780634089d49f1461014f5780635983e6b01461018457806361c992a3146101a45780636d7c4797146101e457600080fd5b80630f13b763146100e257806322ccb474146101045780633ccfd60b1461013a575b600080fd5b3480156100ee57600080fd5b506101026100fd366004610d0f565b6102cd565b005b34801561011057600080fd5b5061012461011f366004610d3f565b610375565b6040516101319190610d9e565b60405180910390f35b34801561014657600080fd5b50610102610536565b34801561015b57600080fd5b5061016f61016a366004610d3f565b61061e565b60405161013199989796959493929190610e35565b34801561019057600080fd5b5061010261019f366004610d0f565b610704565b3480156101b057600080fd5b506101d46101bf366004610d0f565b60046020526000908152604090205460ff1681565b6040519015158152602001610131565b3480156101f057600080fd5b506101026101ff366004610eac565b6107c1565b34801561021057600080fd5b50610102610999565b34801561022557600080fd5b506000546040516001600160a01b039091168152602001610131565b61025461024f366004610f88565b6109ad565b604051908152602001610131565b34801561026e57600080fd5b5061025460055481565b34801561028457600080fd5b50610102610293366004610d3f565b610be7565b3480156102a457600080fd5b50600254610254565b3480156102b957600080fd5b506101026102c8366004610d0f565b610c2a565b6102d5610c68565b6001600160a01b0381166103295760405162461bcd60e51b8152602060048201526016602482015275496e76616c6964206f7261636c65206164647265737360501b60448201526064015b60405180910390fd5b6001600160a01b038116600081815260046020526040808220805460ff19166001179055517f5a7a3f71a35f5e2589980d29d1c6d8c75e39657751190874081e55208bae24b79190a250565b604080516101208101825260008082526020820181905291810182905260608082018390526080820183905260a0820183905260c0820183905260e0820192909252610100810191909152816000811180156103d357506002548111155b6104185760405162461bcd60e51b815260206004820152601660248201527514995c5d595cdd08191bd95cc81b9bdd08195e1a5cdd60521b6044820152606401610320565b6000838152600360208181526040928390208351610120810185528154815260018201546001600160a01b03169281019290925260028101549382019390935290820154606082015260048201546080820152600582015460ff808216151560a08401526101009182900416151560c0830152600683015460e0830152600783018054929392918401916104ab90610faa565b80601f01602080910402602001604051908101604052809291908181526020018280546104d790610faa565b80156105245780601f106104f957610100808354040283529160200191610524565b820191906000526020600020905b81548152906001019060200180831161050757829003601f168201915b50505050508152505091505b50919050565b61053e610c68565b47806105835760405162461bcd60e51b81526020600482015260146024820152734e6f2066756e647320746f20776974686472617760601b6044820152606401610320565b600080546040516001600160a01b039091169083908381818185875af1925050503d80600081146105d0576040519150601f19603f3d011682016040523d82523d6000602084013e6105d5565b606091505b505090508061061a5760405162461bcd60e51b815260206004820152601160248201527015da5d1a191c985dd85b0819985a5b1959607a1b6044820152606401610320565b5050565b60036020819052600091825260409091208054600182015460028301549383015460048401546005850154600686015460078701805496986001600160a01b039096169795969495939460ff808516956101009095041693919061068190610faa565b80601f01602080910402602001604051908101604052809291908181526020018280546106ad90610faa565b80156106fa5780601f106106cf576101008083540402835291602001916106fa565b820191906000526020600020905b8154815290600101906020018083116106dd57829003601f168201915b5050505050905089565b61070c610c68565b6000546001600160a01b03166001600160a01b0316816001600160a01b0316036107785760405162461bcd60e51b815260206004820152601c60248201527f43616e6e6f74207265766f6b6520636f6e7472616374206f776e6572000000006044820152606401610320565b6001600160a01b038116600081815260046020526040808220805460ff19169055517f3c9c4af7c4c66de2ffc68abfa4e0d275fbce92f248473bca0d6787dc8caf8e319190a250565b3360009081526004602052604090205460ff166108185760405162461bcd60e51b81526020600482015260156024820152744e6f7420617574686f72697a6564206f7261636c6560581b6044820152606401610320565b8360008111801561082b57506002548111155b6108705760405162461bcd60e51b815260206004820152601660248201527514995c5d595cdd08191bd95cc81b9bdd08195e1a5cdd60521b6044820152606401610320565b6000858152600360205260409020600581015460ff16156108d35760405162461bcd60e51b815260206004820152601960248201527f5265717565737420616c726561647920636f6d706c65746564000000000000006044820152606401610320565b6127108411156109255760405162461bcd60e51b815260206004820152601860248201527f496e76616c696420636f6e666964656e63652073636f726500000000000000006044820152606401610320565b6005810180548615156101000261ffff199091161760011790556006810184905560078101610954848261102d565b50857f43fe36a1e4960f0851a51208705c4d1c9682a76fd05c46b1cfa120982970ca6e868686604051610989939291906110ed565b60405180910390a2505050505050565b6109a1610c68565b6109ab6000610c95565b565b60006109b7610ce5565b6005543410156109fc5760405162461bcd60e51b815260206004820152601060248201526f496e73756666696369656e742066656560801b6044820152606401610320565b82610a495760405162461bcd60e51b815260206004820152601760248201527f496e76616c69642063726564656e7469616c20686173680000000000000000006044820152606401610320565b81610a965760405162461bcd60e51b815260206004820152601c60248201527f496e76616c6964207375626d697474656420696d6167652068617368000000006044820152606401610320565b60028054906000610aa683611117565b9091555050600280546040805161012081018252828152336020808301918252828401898152606084018981524260808601908152600060a0870181815260c0880182815260e089018381528a518089018c52848152610100808c019182528d86526003998a90529b9094208a518155985160018a0180546001600160a01b0319166001600160a01b0390921691909117905595519b88019b909b5592519486019490945551600485015551600584018054985161ffff1990991691151561ff0019169190911797151590950296909617909355935160068501559051919290916007820190610b96908261102d565b5050604080518681526020810186905233925083917f534051584813937010520aa82b173c1d8426f40375f2558b630bb115d7b49a77910160405180910390a39050610be160018055565b92915050565b610bef610c68565b60058190556040518181527f8c4d35e54a3f2ef1134138fd8ea3daee6a3c89e10d2665996babdf70261e2c769060200160405180910390a150565b610c32610c68565b6001600160a01b038116610c5c57604051631e4fbdf760e01b815260006004820152602401610320565b610c6581610c95565b50565b6000546001600160a01b031633146109ab5760405163118cdaa760e01b8152336004820152602401610320565b600080546001600160a01b038381166001600160a01b0319831681178455604051919092169283917f8be0079c531659141344cd1fd0a4f28419497f9722a3daafe3b4186f6b6457e09190a35050565b600260015403610d0857604051633ee5aeb560e01b815260040160405180910390fd5b6002600155565b600060208284031215610d2157600080fd5b81356001600160a01b0381168114610d3857600080fd5b9392505050565b600060208284031215610d5157600080fd5b5035919050565b6000815180845260005b81811015610d7e57602081850181015186830182015201610d62565b506000602082860101526020601f19601f83011685010191505092915050565b602081528151602082015260006020830151610dc560408401826001600160a01b03169052565b506040830151606083015260608301516080830152608083015160a083015260a0830151610df760c084018215159052565b5060c083015180151560e08401525060e08301516101008381019190915283015161012080840152610e2d610140840182610d58565b949350505050565b60006101208b835260018060a01b038b16602084015289604084015288606084015287608084015286151560a084015285151560c08401528460e084015280610100840152610e8681840185610d58565b9c9b505050505050505050505050565b634e487b7160e01b600052604160045260246000fd5b60008060008060808587031215610ec257600080fd5b8435935060208501358015158114610ed957600080fd5b925060408501359150606085013567ffffffffffffffff80821115610efd57600080fd5b818701915087601f830112610f1157600080fd5b813581811115610f2357610f23610e96565b604051601f8201601f19908116603f01168101908382118183101715610f4b57610f4b610e96565b816040528281528a6020848701011115610f6457600080fd5b82602086016020830137600060208483010152809550505050505092959194509250565b60008060408385031215610f9b57600080fd5b50508035926020909101359150565b600181811c90821680610fbe57607f821691505b60208210810361053057634e487b7160e01b600052602260045260246000fd5b601f82111561102857600081815260208120601f850160051c810160208610156110055750805b601f850160051c820191505b8181101561102457828155600101611011565b5050505b505050565b815167ffffffffffffffff81111561104757611047610e96565b61105b816110558454610faa565b84610fde565b602080601f83116001811461109057600084156110785750858301515b600019600386901b1c1916600185901b178555611024565b600085815260208120601f198616915b828110156110bf578886015182559484019460019091019084016110a0565b50858210156110dd5787850151600019600388901b60f8161c191681555b5050505050600190811b01905550565b831515815282602082015260606040820152600061110e6060830184610d58565b95945050505050565b60006001820161113757634e487b7160e01b600052601160045260246000fd5b506001019056fea2646970667358221220eade05fefc78fb013f852e890c98f0af6db4c7b9b41150ed2e5d62285a5bc58a64736f6c63430008140033",
  "linkReferences": {},
  "deployedLinkReferences": {}
}